:020000040800F2
:1000000058040020A9010008530D0008BB0C00088B
:10001000510D0008E1020008790F000800000000FF
:10002000000000000000000000000000570D000864
:10003000E302000800000000550D0008590D0008FB
:10004000C3010008C3010008C3010008C301000880
:10005000C3010008C3010008C3010008C301000870
:10006000C3010008C3010008C3010008C301000860
:10007000C3010008C3010008C3010008C301000850
:10008000C3010008C3010008C3010008000000000C
:10009000000000000000000000000000C301000894
:1000A000C3010008C3010008C3010008C301000820
:1000B000C3010008C3010008C3010008C301000810
:1000C000C3010008C3010008C3010008C301000800
:1000D000C3010008C3010008C301000800000000BC
:1000E000C3010008C3010008C301000800000000AC
:1000F000000000000000000000000000C301000834
:1001000000000000C3010008C3010008C30100088B
:1001100000000000000000000000000000000000DF
:10012000C3010008C3010008C3010008C30100089F
:10013000C3010008000000000000000000000000F3
:10014000000000000000000000000000C3010008E3
:10015000C3010008C3010008C3010008C30100086F
:10016000C3010008C30100080000000000000000F7
:10017000000000000000000000000000000000007F
:1001800000000000C30100080000000000000000A3
:10019000C3010008DFF80CD000F090F800480047D9
:1001A00049110008580400200648804706480047C7
:1001B000FEE7FEE7FEE7FEE7FEE7FEE7FEE7FEE717
:1001C000FEE7FEE7D10D0008950100082DE9F05F7C
:1001D0000546002092469B468846064681464024B6
:1001E0001BE0284641464746224600F057F8534652
:1001F0005A46C01A914110D311461846224600F0C3
:100200003EF82D1A67EB01084F46224601200021D7
:1002100000F035F817EB00094E41201EA4F101044F
:10022000DFDC484631462A464346BDE8F09FD2B25D
:1002300001E000F8012B491EFBD270470022F6E7CF
:1002400010B513460A4604461946FFF7F0FF20464C
:1002500010BD30B50B46014600202022012409E0E4
:1002600021FA02F59D4205D303FA02F5491B04FA6F
:1002700002F52844151EA2F10102F1DC30BD202A4E
:1002800004DB203A00FA02F1002070479140C2F1ED
:10029000200320FA03F3194390407047202A04DB1F
:1002A000203A21FA02F00021704721FA02F3D040EF
:1002B000C2F120029140084319467047064C074D91
:1002C00006E0E06840F0010394E807009847103426
:1002D000AC42F6D3FFF762FFA4110008C411000876
:1002E000FEE770477047000070B5044600F0E4F880
:1002F0000546601C02D004480078044400F0DCF895
:10030000401BA042FAD370BD000000202DE9F84F39
:1003100000224FF0010803254FF00F0E0B6808FA7A
:1003200002F42340A34271D14E68012E05D0022E63
:1003300003D0112E01D0122E15D18668570005FA70
:1003400007FC26EA0C06D1F80CC00CFA07FC4CEAB4
:10035000060CC0F808C04668A6430C79C4F3001424
:10036000944034434460C668570005FA07FC8C6823
:1003700026EA0C06BC403443C4604C68022C01D011
:10038000122C13D1D40800EB8404A346D4F8209097
:1003900054074FEAD46A0EFA0AF629EA06090E69EA
:1003A00006FA0AF646EA0906CBF8206004680E79D8
:1003B00024EA0C0406F00306BE40264306604C689F
:1003C000E40056D52E4C266846F480462660246804
:1003D00022F0030604F4804400942A4C3444A446DA
:1003E000D4F808489607370F0EFA07F6B443264E9E
:1003F000B04201D1002615E0244EB04201D10126C1
:1004000010E0234EB04202D102260BE031E0214E33
:10041000B04201D1032605E01F4EB04201D10426AF
:1004200000E00726BE402643CCF808681B4E34681F
:100430004F689C43FF0300D51C433460174E361DA4
:1004400034684F689C43BF0300D51C433460134E8F
:10045000083634684F689C43FF0200D51C43346063
:100460000E4E0C3634684F689C43BF0200D51C43C7
:100470003460521C102AFFF451AFBDE8F88F000021
:1004800044380240003001400000024000040240B5
:1004900000080240000C024000100240003C0140F5
:1004A000426931EA020200D10904816170470AB150
:1004B000816170470904FBE70148806870470000CC
:1004C0000000002002488168027811448160704772
:1004D000000000200B4810B5016841F40071016074
:1004E000016841F480610160016841F4807101603C
:1004F000032000F061F8002000F006F800F024F876
:10050000002010BD003C024070B50D4D04464FF474
:100510007A712878B1FBF0F00A490968B1FBF0F074
:1005200000F0F4FA48B9102C07D200222146501EE0
:1005300000F022F800206C6070BD012070BD00004A
:10054000000000200C0000200A4808B5016841F4B2
:1005500080410160006800F4804000900548001F61
:10056000016841F080510160006800F08050009007
:1005700008BD000044380240F0B40E4B1B680C4626
:10058000C3F30223C3F10705042D00D90425191D67
:10059000072901D2002300E0DB1E012606FA05F13F
:1005A000491E214099409E40761E16403143F0BCC2
:1005B00000F0F4BC0CED00E0064900F0070208680A
:1005C0004FF6FF03184040EA0220034A1043086038
:1005D000704700000CED00E00000FA052DE9F0473F
:1005E0000E46050065D0DFF81481D8F80000F7B298
:1005F00000F00F00B04207D288F80070D8F8000071
:1006000000F00F00B04254D128683D4C810712D54C
:10061000400703D5206840F4E050206028780007A8
:1006200003D5206840F4604020602068A96820F06D
:10063000F000084320602878C0072DD03049686852
:100640000839012812D0022813D0032811D00968D4
:10065000890700292DDA216821F003010143216077
:10066000FFF72AFF814641F2883A0EE009688903C4
:10067000EFE709688901ECE7FFF71EFFA0EB09012E
:10068000514502D90320BDE8F0872068696800F071
:100690000C00B0EB810FEFD1D8F80010404601F00C
:1006A0000F01B14207D90770006800F00F00B04297
:1006B00001D00120E7E72878400705D52068E968E0
:1006C00020F4E050084320602878000706D5206811
:1006D000296920F4604040EAC100206000F038F849
:1006E0002168084AC1F30311515CC84006490860FB
:1006F00006480068FFF708FF0020C4E7003C0240FE
:10070000083802408C1100080C0000200400002072
:100710000448054900680968044AC1F38221515C14
:10072000C84070470C000020083802409C110008A7
:100730000448054900680968044AC1F34231515C24
:10074000C84070470C000020083802409C11000887
:10075000154810B5006810F00C02144813D0411071
:10076000042A0FD0082A0ED10F4C241F22682368B8
:1007700002F03F025B0207D52068C0F38810A0FB9F
:10078000010106E0084610BD2168C1F38811A1FBF4
:1007900000010023FFF71AFD2168C1F30141491C44
:1007A0004900B0FBF1F010BD083802400024F4000D
:1007B0002DE9F84F040076D02078DFF838A3CE4D2D
:1007C000C00749D0DAF800105046C1F38101012971
:1007D00008D00068C0F3810002280AD1281D0068F3
:1007E000400206D52868800336D560680028E2D02C
:1007F00032E06068B0F5803F10D0B0F5A02F2868D7
:1008000010D020F480302860286820F480202860F0
:100810006068A0B1FFF750FE06460CE0286840F47F
:100820008030F4E740F480202860F7E7FFF744FECB
:10083000801B642873D828688003F7D50CE0FFF785
:100840003BFE064605E000BFFFF736FE801B64282E
:10085000F0D828688003F7D42078DFF8A0828007DA
:100860004FF000093ED5DAF80010504611F00C0F99
:1008700009D00068C0F3810002280BD19D48001FF9
:100880000068400206D42868800715D5E068012872
:1008900009D111E0E068B8B10120C8F80000FFF705
:1008A0000BFE064605E020E1FFF706FE801B02284E
:1008B000C0D828688007F7D52868216920F0F8009B
:1008C00040EAC10028600DE0C8F80090FFF7F4FD91
:1008D000064604E0FFF7F0FD801B02281FD82868B9
:1008E0008007F7D42078000722D5824E84486169BA
:1008F0006C3671B101210160FFF7DEFD074604E0AF
:10090000FFF7DAFDC01B022809D830688007F7D549
:100910000EE0C0F80090FFF7CFFD074605E082E04B
:10092000FFF7CAFDC01B02287DD830688007F7D4C6
:100930002078400768D5DFF8BCB100270BF1380BF1
:10094000DBF80000C0000BD4DBF8001041F0805150
:10095000CBF80010DBF80000012700F08050009079
:10096000684E3068C00510D4306840F48070306044
:10097000FFF7A2FD009005E0FFF79EFD0099401AE9
:10098000022850D83068C005F6D55A4EA06868369F
:1009900001280FD00528306810D020F00100306009
:1009A000306820F004003060A068B8B1FFF784FD23
:1009B00000900FE0306840F00100F4E740F00400E0
:1009C0003060F7E7FFF778FD0099411A41F288306F
:1009D000814266D830688007F4D50EE0FFF76CFDE1
:1009E000009007E0FFF768FD0099411A41F2883056
:1009F000814256D830688007F4D42FB1DBF800105C
:100A000021F08051CBF80010A069D0B3DAF80020B3
:100A10005146C2F38102022A4AD00228484607D032
:100A2000C8F8600000E03CE0FFF746FD04463BE00C
:100A30004746C8F86000FFF73FFD064605E000BFE7
:100A4000FFF73AFD801B02282BD828688001F7D4D5
:100A5000D4E907010843A16A2B4A490802EB014186
:100A6000626A41EA8211084394F82C1040EA01615D
:100A70002048001F016001203866FFF71DFD044675
:100A800005E034E0FFF718FD001B022809D82868AC
:100A90008001F7D52BE000BFFFF70EFD001B0228F9
:100AA00002D90320BDE8F88F28688001F4D41EE045
:100AB0000128F7D00868E26900F48001914214D15E
:100AC000226A00F03F0191420FD147F6C071626A7D
:100AD0000140914209D1A26A00F44031914204D10F
:100AE000E16A00F07060884201D00120DAE700205E
:100AF000D8E70000083802400038024000004742B2
:100B0000800E4742007000400000FFFF10B5401EFD
:100B1000B0F1807F01D3012010BD4FF0E02460616F
:100B20000F21601700F03AFA0020A0610720206131
:100B3000002010BD70B5040004D094F839000025E1
:100B400010B106E0012070BD84F83850204600F056
:100B500023F8242084F839002068C16821F400516A
:100B6000C160204600F042F92068016921F49041FB
:100B700001612068416921F02A0141612068C16852
:100B800041F40051C160E563202084F8390084F805
:100B90003A00002070BD000010B586B00446142154
:100BA0006846FFF74BFB13492068884220D1124862
:100BB000016841F400310160006800F400300590E4
:100BC0000D481038016841F0010101600068694674
:100BD00000F0010005900C200090022001900120FF
:100BE000029003200390072004900448FFF78EFB37
:100BF00006B010BD004400404038024000000240F2
:100C00002DE9F843044690F839001F4616460D4674
:100C1000202850D1B5B1AEB194F8380001284AD09F
:100C2000012084F838004FF00008C4F83C802120EF
:100C300084F83900FFF740FCA6848146E68484F8F6
:100C4000388026E00120BDE8F883E08C401EE08477
:100C5000A0684B46B0F5805F4FF000024FF0800176
:100C60002046009703D000F055F9E8B90DE000F0F8
:100C700051F9C8B928882168C0F308004860206984
:100C800008B16D1C05E0AD1C03E0216815F8010BEF
:100C90004860E08C0028D8D14B46002240212046F5
:100CA000009700F037F908B10320CCE7202084F842
:100CB00039000020C7E70220C5E7FEE730B587B05E
:100CC00014216846FFF7BAFA11480024016841F080
:100CD00080010160016801F080010591016841F027
:100CE0000101016000680B4D00F0010005902246F3
:100CF00020212846FFF7DBFB202000900120CDE9D2
:100D00000104694628460394FFF700FB07B030BD95
:100D100030380240000002400C4810B50A4901601A
:100D20004FF4E1314160002181600C22C160C0E9D3
:100D300004128161C161FFF7FDFE002803D0BDE808
:100D40001040FFF7CFBA10BD00440040140000204F
:100D5000FEE7704770477047FFF7B4BB10B592B01D
:100D600030216846FFF76AFA14210CA8FFF766FAEB
:100D700015480024016841F080510160006800F0CE
:100D8000805011901148016821F4404141F4004124
:100D900001600068069400F4404011900220009029
:100DA00001200390102004906846FFF701FD0F20FA
:100DB000CDE90C040E940F9400210CA81094FFF7B9
:100DC0000DFC12B010BD0000403802400070004021
:100DD0000548016841F47001016003494FF000606B
:100DE000803908607047000088ED00E02DE9F0418F
:100DF000044600680169E26821F440511143016131
:100E00002169A068E26908436169114308432168C8
:100E1000CA6849F20C639A430243CA602068416978
:100E2000A26921F4407111434161E06919276425E9
:100E30003226B0F5004F354A354920684FF000089A
:100E400006D0884201D0904236D1FFF771FC35E0E0
:100E5000884201D0904202D1FFF76AFC01E0FFF71F
:100E600057FC61684A18A0FB070148EB0803FFF72D
:100E7000ADF90146B0FBF5F00201B1FBF5F06FF002
:100E80001803584301EB800006EBC000B0FBF5F0FF
:100E900000F0F80002EB4002B1FBF5F0584301EB23
:100EA000800006EBC000B0FBF5F000F00700216801
:100EB00010448860BDE8F081FFF72AFC61688B0F61
:100EC0008A00A0FB0701FFF781F90146B0FBF5F0AE
:100ED0006FF01802504301EB800006EB0010B0FBEE
:100EE000F5F000F0F002B1FBF5F002EB0012B1FBFF
:100EF000F5F06FF01803584301EB800006EB00108B
:100F0000B0FBF5F000F00F00D1E700000014014045
:100F1000001001402DE9F041984617460E46044660
:100F2000069D1DE0681C1BD02DB1FFF7C5FAA0EB94
:100F30000800A84214D92068C16821F4D071C160AA
:100F40002068416921F001014161202084F83900C5
:100F500084F83A00002084F838000320BDE8F081CE
:100F60002068006836EA000004D00020B842D9D0DA
:100F70000020F3E70120F9E7FEE700000FB4054B7E
:100F800010B503A9044A029800F028F810BC5DF8D7
:100F900014FB000031110008100000200907090EA1
:100FA000002804DB00F1E02080F80014704700F016
:100FB0000F0000F1E02080F8141D704702E008C81F
:100FC000121F08C1002AFAD170477047002001E0C3
:100FD00001C1121F002AFBD1704700002DE9FF4F0D
:100FE00089B09B460446002506E025280BD05A46CA
:100FF0000B999047641C6D1C20780028F5D10DB02A
:101000002846BDE8F08F0027B8460122474900E096
:10101000074314F8013F203B02FA03F00842F7D1DE
:1010200020782E2819D114F8010F47F004072A2838
:101030000ED06FF02F022078A0F1300109290CD8D2
:1010400008EB880102EB410100EB0108641CF2E7A8
:101050000A98641C50F8048B0A9020780028CED09F
:10106000642808D0692806D075281ED05A460B99E6
:1010700090476D1C58E00A994FF00A0901C90A917E
:10108000002802DA40422D2102E0390504D52B2147
:101090008DF82010012103E0F90704D02021F7E7A3
:1010A0008A4608AE0DE00021FAE70A994FF00A09D6
:1010B00001C90A91F7E74946FFF7CBF8303106F846
:1010C000011D0028F7D1ADEB060000F120097807DB
:1010D00001D44FF00108C84502DDA8EB090000E08B
:1010E00000208046002706E008A85A46C05D0B99FC
:1010F00090476D1C7F1C5745F6DB04E030205A46B4
:101100000B9990476D1CB8F10001A8F10108F5DCBE
:1011100005E016F8010B5A460B9990476D1CB9F182
:101120000001A9F10109F4DC641C65E7092801004C
:1011300013B54FF6FF73012269460248FFF760FDC1
:1011400000981CBD140000200024FFF7C3F9FFF72E
:1011500005FEFFF7B3FDFFF7DFFD084D4FF47A768C
:1011600020212846FFF79CF93046FFF7BDF8641CA4
:10117000214603A0FFF702FFF2E700000000024053
:10118000636F756E743D25640D0A00000000000059
:101190000000000001020304060708090000000027
:1011A00001020304C4110008000000201400000024
:1011B000BC0F0008D81100081400002044040000EF
:1011C000CC0F00080100000010000000000000002B
:0811D0000024F40000000000FF
:040000050800019559
:00000001FF
